{
  "_format": "hh-sol-artifact-1",
  "contractName": "VotingSystem",
  "sourceName": "contracts/VotingSystem.sol",
  "abi": [
    {
      "inputs": [],
      "stateMutability": "nonpayable",
      "type": "constructor"
    },
    {
      "inputs": [],
      "name": "candidateCount",
      "outputs": [
        {
          "internalType": "uint256",
          "name": "",
          "type": "uint256"
        }
      ],
      "stateMutability": "view",
      "type": "function"
    },
    {
      "inputs": [
        {
          "internalType": "uint256",
          "name": "",
          "type": "uint256"
        }
      ],
      "name": "candidates",
      "outputs": [
        {
          "internalType": "uint256",
          "name": "id",
          "type": "uint256"
        },
        {
          "internalType": "string",
          "name": "name",
          "type": "string"
        },
        {
          "internalType": "uint256",
          "name": "voteCount",
          "type": "uint256"
        },
        {
          "internalType": "bool",
          "name": "exists",
          "type": "bool"
        },
        {
          "internalType": "uint256",
          "name": "startTime",
          "type": "uint256"
        },
        {
          "internalType": "uint256",
          "name": "endTime",
          "type": "uint256"
        }
      ],
      "stateMutability": "view",
      "type": "function"
    },
    {
      "inputs": [
        {
          "internalType": "uint256",
          "name": "_candidateId",
          "type": "uint256"
        }
      ],
      "name": "castVote",
      "outputs": [],
      "stateMutability": "nonpayable",
      "type": "function"
    },
    {
      "inputs": [
        {
          "internalType": "uint256",
          "name": "_candidateId",
          "type": "uint256"
        }
      ],
      "name": "deleteCandidate",
      "outputs": [],
      "stateMutability": "nonpayable",
      "type": "function"
    },
    {
      "inputs": [],
      "name": "getCandidates",
      "outputs": [
        {
          "components": [
            {
              "internalType": "uint256",
              "name": "id",
              "type": "uint256"
            },
            {
              "internalType": "string",
              "name": "name",
              "type": "string"
            },
            {
              "internalType": "uint256",
              "name": "voteCount",
              "type": "uint256"
            },
            {
              "internalType": "bool",
              "name": "exists",
              "type": "bool"
            },
            {
              "internalType": "uint256",
              "name": "startTime",
              "type": "uint256"
            },
            {
              "internalType": "uint256",
              "name": "endTime",
              "type": "uint256"
            }
          ],
          "internalType": "struct VotingSystem.Candidate[]",
          "name": "",
          "type": "tuple[]"
        }
      ],
      "stateMutability": "view",
      "type": "function"
    },
    {
      "inputs": [
        {
          "internalType": "uint256",
          "name": "_candidateId",
          "type": "uint256"
        }
      ],
      "name": "getVotes",
      "outputs": [
        {
          "internalType": "uint256",
          "name": "",
          "type": "uint256"
        }
      ],
      "stateMutability": "view",
      "type": "function"
    },
    {
      "inputs": [
        {
          "internalType": "address",
          "name": "",
          "type": "address"
        }
      ],
      "name": "hasVoted",
      "outputs": [
        {
          "internalType": "bool",
          "name": "",
          "type": "bool"
        }
      ],
      "stateMutability": "view",
      "type": "function"
    },
    {
      "inputs": [
        {
          "internalType": "address",
          "name": "",
          "type": "address"
        }
      ],
      "name": "isRegisteredCandidate",
      "outputs": [
        {
          "internalType": "bool",
          "name": "",
          "type": "bool"
        }
      ],
      "stateMutability": "view",
      "type": "function"
    },
    {
      "inputs": [
        {
          "internalType": "address",
          "name": "",
          "type": "address"
        }
      ],
      "name": "isRegisteredVoter",
      "outputs": [
        {
          "internalType": "bool",
          "name": "",
          "type": "bool"
        }
      ],
      "stateMutability": "view",
      "type": "function"
    },
    {
      "inputs": [
        {
          "internalType": "string",
          "name": "_name",
          "type": "string"
        },
        {
          "internalType": "uint256",
          "name": "_durationInDays",
          "type": "uint256"
        }
      ],
      "name": "registerCandidate",
      "outputs": [],
      "stateMutability": "nonpayable",
      "type": "function"
    },
    {
      "inputs": [
        {
          "internalType": "address",
          "name": "_voter",
          "type": "address"
        }
      ],
      "name": "registerVoter",
      "outputs": [],
      "stateMutability": "nonpayable",
      "type": "function"
    }
  ],
  "bytecode": "0x60a0604052348015600f57600080fd5b503373ffffffffffffffffffffffffffffffffffffffff1660808173ffffffffffffffffffffffffffffffffffffffff16815250506080516119eb61005f600039600061041401526119eb6000f3fe608060405234801561001057600080fd5b50600436106100a95760003560e01c80633eb76b9c116100715780633eb76b9c146101695780635ef16fa914610185578063a9a981a3146101b5578063da36cffe146101d3578063f518b52614610203578063ff9810991461021f576100a9565b806306a49fce146100ae57806309eef43e146100cc5780631e620cd4146100fc5780633477ee2e1461011857806338db6dd31461014d575b600080fd5b6100b661024f565b6040516100c39190610e50565b60405180910390f35b6100e660048036038101906100e19190610ee4565b6103f2565b6040516100f39190610f20565b60405180910390f35b61011660048036038101906101119190610f67565b610412565b005b610132600480360381019061012d9190610f67565b6105a4565b60405161014496959493929190610fed565b60405180910390f35b61016760048036038101906101629190610ee4565b610675565b005b610183600480360381019061017e9190610f67565b61075d565b005b61019f600480360381019061019a9190610ee4565b610985565b6040516101ac9190610f20565b60405180910390f35b6101bd6109a5565b6040516101ca9190611055565b60405180910390f35b6101ed60048036038101906101e89190610ee4565b6109ab565b6040516101fa9190610f20565b60405180910390f35b61021d600480360381019061021891906111a5565b6109cb565b005b61023960048036038101906102349190610f67565b610b8c565b6040516102469190611055565b60405180910390f35b60606000805467ffffffffffffffff81111561026e5761026d61107a565b5b6040519080825280602002602001820160405280156102a757816020015b610294610bac565b81526020019060019003908161028c5790505b5090506000600190505b60005481116103ea57600260008281526020019081526020016000206040518060c0016040529081600082015481526020016001820180546102f290611230565b80601f016020809104026020016040519081016040528092919081815260200182805461031e90611230565b801561036b5780601f106103405761010080835404028352916020019161036b565b820191906000526020600020905b81548152906001019060200180831161034e57829003601f168201915b50505050508152602001600282015481526020016003820160009054906101000a900460ff1615151515815260200160048201548152602001600582015481525050826001836103bb9190611290565b815181106103cc576103cb6112c4565b5b602002602001018190525080806103e2906112f3565b9150506102b1565b508091505090565b60016020528060005260406000206000915054906101000a900460ff1681565b7f000000000000000000000000000000000000000000000000000000000000000073ffffffffffffffffffffffffffffffffffffffff163373ffffffffffffffffffffffffffffffffffffffff16146104a0576040517f08c379a000000000000000000000000000000000000000000000000000000000815260040161049790611387565b60405180910390fd5b60008054146104e4576040517f08c379a00000000000000000000000000000000000000000000000000000000081526004016104db90611419565b60405180910390fd5b6002600082815260200190815260200160002060030160009054906101000a900460ff16610547576040517f08c379a000000000000000000000000000000000000000000000000000000000815260040161053e90611485565b60405180910390fd5b600260008281526020019081526020016000206000808201600090556001820160006105739190610be4565b60028201600090556003820160006101000a81549060ff021916905560048201600090556005820160009055505050565b60026020528060005260406000206000915090508060000154908060010180546105cd90611230565b80601f01602080910402602001604051908101604052809291908181526020018280546105f990611230565b80156106465780601f1061061b57610100808354040283529160200191610646565b820191906000526020600020905b81548152906001019060200180831161062957829003601f168201915b5050505050908060020154908060030160009054906101000a900460ff16908060040154908060050154905086565b600360008273ffffffffffffffffffffffffffffffffffffffff1673ffffffffffffffffffffffffffffffffffffffff16815260200190815260200160002060009054906101000a900460ff1615610702576040517f08c379a00000000000000000000000000000000000000000000000000000000081526004016106f9906114f1565b60405180910390fd5b6001600360008373ffffffffffffffffffffffffffffffffffffffff1673ffffffffffffffffffffffffffffffffffffffff16815260200190815260200160002060006101000a81548160ff02191690831515021790555050565b600160003373ffffffffffffffffffffffffffffffffffffffff1673ffffffffffffffffffffffffffffffffffffffff16815260200190815260200160002060009054906101000a900460ff16156107ea576040517f08c379a00000000000000000000000000000000000000000000000000000000081526004016107e19061155d565b60405180910390fd5b6002600082815260200190815260200160002060030160009054906101000a900460ff1661084d576040517f08c379a000000000000000000000000000000000000000000000000000000000815260040161084490611485565b60405180910390fd5b60026000828152602001908152602001600020600401544210156108a6576040517f08c379a000000000000000000000000000000000000000000000000000000000815260040161089d906115c9565b60405180910390fd5b60026000828152602001908152602001600020600501544211156108ff576040517f08c379a00000000000000000000000000000000000000000000000000000000081526004016108f690611635565b60405180910390fd5b60018060003373ffffffffffffffffffffffffffffffffffffffff1673ffffffffffffffffffffffffffffffffffffffff16815260200190815260200160002060006101000a81548160ff02191690831515021790555060026000828152602001908152602001600020600201600081548092919061097d906112f3565b919050555050565b60046020528060005260406000206000915054906101000a900460ff1681565b60005481565b60036020528060005260406000206000915054906101000a900460ff1681565b600460003373ffffffffffffffffffffffffffffffffffffffff1673ffffffffffffffffffffffffffffffffffffffff16815260200190815260200160002060009054906101000a900460ff1615610a58576040517f08c379a0000000000000000000000000000000000000000000000000000000008152600401610a4f906116a1565b60405180910390fd5b600080815480929190610a6a906112f3565b91905055506040518060c001604052806000548152602001838152602001600081526020016001151581526020014281526020016201518083610aad91906116c1565b42610ab89190611703565b8152506002600080548152602001908152602001600020600082015181600001556020820151816001019081610aee91906118e3565b506040820151816002015560608201518160030160006101000a81548160ff0219169083151502179055506080820151816004015560a082015181600501559050506001600460003373ffffffffffffffffffffffffffffffffffffffff1673ffffffffffffffffffffffffffffffffffffffff16815260200190815260200160002060006101000a81548160ff0219169083151502179055505050565b600060026000838152602001908152602001600020600201549050919050565b6040518060c0016040528060008152602001606081526020016000815260200160001515815260200160008152602001600081525090565b508054610bf090611230565b6000825580601f10610c025750610c21565b601f016020900490600052602060002090810190610c209190610c24565b5b50565b5b80821115610c3d576000816000905550600101610c25565b5090565b600081519050919050565b600082825260208201905092915050565b6000819050602082019050919050565b6000819050919050565b610c8081610c6d565b82525050565b600081519050919050565b600082825260208201905092915050565b60005b83811015610cc0578082015181840152602081019050610ca5565b60008484015250505050565b6000601f19601f8301169050919050565b6000610ce882610c86565b610cf28185610c91565b9350610d02818560208601610ca2565b610d0b81610ccc565b840191505092915050565b60008115159050919050565b610d2b81610d16565b82525050565b600060c083016000830151610d496000860182610c77565b5060208301518482036020860152610d618282610cdd565b9150506040830151610d766040860182610c77565b506060830151610d896060860182610d22565b506080830151610d9c6080860182610c77565b5060a0830151610daf60a0860182610c77565b508091505092915050565b6000610dc68383610d31565b905092915050565b6000602082019050919050565b6000610de682610c41565b610df08185610c4c565b935083602082028501610e0285610c5d565b8060005b85811015610e3e5784840389528151610e1f8582610dba565b9450610e2a83610dce565b925060208a01995050600181019050610e06565b50829750879550505050505092915050565b60006020820190508181036000830152610e6a8184610ddb565b905092915050565b6000604051905090565b600080fd5b600080fd5b600073ffffffffffffffffffffffffffffffffffffffff82169050919050565b6000610eb182610e86565b9050919050565b610ec181610ea6565b8114610ecc57600080fd5b50565b600081359050610ede81610eb8565b92915050565b600060208284031215610efa57610ef9610e7c565b5b6000610f0884828501610ecf565b91505092915050565b610f1a81610d16565b82525050565b6000602082019050610f356000830184610f11565b92915050565b610f4481610c6d565b8114610f4f57600080fd5b50565b600081359050610f6181610f3b565b92915050565b600060208284031215610f7d57610f7c610e7c565b5b6000610f8b84828501610f52565b91505092915050565b610f9d81610c6d565b82525050565b600082825260208201905092915050565b6000610fbf82610c86565b610fc98185610fa3565b9350610fd9818560208601610ca2565b610fe281610ccc565b840191505092915050565b600060c0820190506110026000830189610f94565b81810360208301526110148188610fb4565b90506110236040830187610f94565b6110306060830186610f11565b61103d6080830185610f94565b61104a60a0830184610f94565b979650505050505050565b600060208201905061106a6000830184610f94565b92915050565b600080fd5b600080fd5b7f4e487b7100000000000000000000000000000000000000000000000000000000600052604160045260246000fd5b6110b282610ccc565b810181811067ffffffffffffffff821117156110d1576110d061107a565b5b80604052505050565b60006110e4610e72565b90506110f082826110a9565b919050565b600067ffffffffffffffff8211156111105761110f61107a565b5b61111982610ccc565b9050602081019050919050565b82818337600083830152505050565b6000611148611143846110f5565b6110da565b90508281526020810184848401111561116457611163611075565b5b61116f848285611126565b509392505050565b600082601f83011261118c5761118b611070565b5b813561119c848260208601611135565b91505092915050565b600080604083850312156111bc576111bb610e7c565b5b600083013567ffffffffffffffff8111156111da576111d9610e81565b5b6111e685828601611177565b92505060206111f785828601610f52565b9150509250929050565b7f4e487b7100000000000000000000000000000000000000000000000000000000600052602260045260246000fd5b6000600282049050600182168061124857607f821691505b60208210810361125b5761125a611201565b5b50919050565b7f4e487b7100000000000000000000000000000000000000000000000000000000600052601160045260246000fd5b600061129b82610c6d565b91506112a683610c6d565b92508282039050818111156112be576112bd611261565b5b92915050565b7f4e487b7100000000000000000000000000000000000000000000000000000000600052603260045260246000fd5b60006112fe82610c6d565b91507fffffffffffffffffffffffffffffffffffffffffffffffffffffffffffffffff82036113305761132f611261565b5b600182019050919050565b7f4e6f7420746865206f776e657200000000000000000000000000000000000000600082015250565b6000611371600d83610fa3565b915061137c8261133b565b602082019050919050565b600060208201905081810360008301526113a081611364565b9050919050565b7f596f752063616e6e6f74206d6f64696679206f6e63652063616e64696461746560008201527f7320617265206164646564000000000000000000000000000000000000000000602082015250565b6000611403602b83610fa3565b915061140e826113a7565b604082019050919050565b60006020820190508181036000830152611432816113f6565b9050919050565b7f43616e64696461746520646f6573206e6f742065786973740000000000000000600082015250565b600061146f601883610fa3565b915061147a82611439565b602082019050919050565b6000602082019050818103600083015261149e81611462565b9050919050565b7f566f74657220616c726561647920726567697374657265640000000000000000600082015250565b60006114db601883610fa3565b91506114e6826114a5565b602082019050919050565b6000602082019050818103600083015261150a816114ce565b9050919050565b7f596f752063616e206f6e6c7920766f7465206f6e63652e000000000000000000600082015250565b6000611547601783610fa3565b915061155282611511565b602082019050919050565b600060208201905081810360008301526115768161153a565b9050919050565b7f566f74696e6720686173206e6f74207374617274656420796574000000000000600082015250565b60006115b3601a83610fa3565b91506115be8261157d565b602082019050919050565b600060208201905081810360008301526115e2816115a6565b9050919050565b7f566f74696e672068617320656e64656400000000000000000000000000000000600082015250565b600061161f601083610fa3565b915061162a826115e9565b602082019050919050565b6000602082019050818103600083015261164e81611612565b9050919050565b7f596f752061726520616c726561647920612063616e6469646174650000000000600082015250565b600061168b601b83610fa3565b915061169682611655565b602082019050919050565b600060208201905081810360008301526116ba8161167e565b9050919050565b60006116cc82610c6d565b91506116d783610c6d565b92508282026116e581610c6d565b915082820484148315176116fc576116fb611261565b5b5092915050565b600061170e82610c6d565b915061171983610c6d565b925082820190508082111561173157611730611261565b5b92915050565b60008190508160005260206000209050919050565b60006020601f8301049050919050565b600082821b905092915050565b6000600883026117997fffffffffffffffffffffffffffffffffffffffffffffffffffffffffffffffff8261175c565b6117a3868361175c565b95508019841693508086168417925050509392505050565b6000819050919050565b60006117e06117db6117d684610c6d565b6117bb565b610c6d565b9050919050565b6000819050919050565b6117fa836117c5565b61180e611806826117e7565b848454611769565b825550505050565b600090565b611823611816565b61182e8184846117f1565b505050565b5b818110156118525761184760008261181b565b600181019050611834565b5050565b601f8211156118975761186881611737565b6118718461174c565b81016020851015611880578190505b61189461188c8561174c565b830182611833565b50505b505050565b600082821c905092915050565b60006118ba6000198460080261189c565b1980831691505092915050565b60006118d383836118a9565b9150826002028217905092915050565b6118ec82610c86565b67ffffffffffffffff8111156119055761190461107a565b5b61190f8254611230565b61191a828285611856565b600060209050601f83116001811461194d576000841561193b578287015190505b61194585826118c7565b8655506119ad565b601f19841661195b86611737565b60005b828110156119835784890151825560018201915060208501945060208101905061195e565b868310156119a0578489015161199c601f8916826118a9565b8355505b6001600288020188555050505b50505050505056fea2646970667358221220a41ae719f0ce432afd7e4aa8c0fd1512ba8b4842988ec55dbcfc6e779b7d912364736f6c634300081c0033",
  "linkReferences": {},
  "deployedLinkReferences": {}
}